S0200000536D61727420486F6D652046696E616C2050726F6A6563742E7372656353
S11300000C944F000C946C000C946C000C946C00D9
S11300100C946C000C946C000C946C000C949B0974
S11300200C946C000C946C000C946C000C946C009C
S11300300C946C000C946C000C946C000C946C008C
S11300400C946C000C946C000C946C000C946C007C
S11300500C946C00FD06020707070C07110716072E
S1130060E206E206E206E206E206E206E206E2064C
S1130070E206E206E206E2061F07F706E206E206E9
S1130080E206E206E206E206E206E206E206E2062C
S11300901B07E206E206FA06E206E206F40611246B
S11300A01FBECFE5D8E0DEBFCDBF11E0A0E6B0E0D3
S11300B0EAE4F7E202C005900D92AC3CB107D9F72F
S11300C028E0ACECB1E001C01D92AD30B207E1F71D
S11300D00E9469050C94A3130C9400009AB321E0C8
S11300E030E0082E02C0220F331F0A94E2F7209555
S11300F029232ABB97B1907E97B997B1892B87B9E9
S113010086B1887F86B986B1866086B987B18068F2
S113011087B987B1806487B987B18F7D87B986B184
S1130120806886B9089586B1806486B9349BFECF11
S113013086B1806186B924B185B190E0982F882773
S1130140822B0895823019F118F4813039F0089522
S11301508330B1F1843009F44CC00895413059F42E
S11301602AB381E090E002C0880F991F6A95E2F7F4
S1130170822B8ABB08952AB381E090E002C0880FE5
S1130180991F6A95E2F7809582238ABB08954130CE
S113019059F427B381E090E002C0880F991F6A9553
S11301A0E2F7822B87BB089527B381E090E002C079
S11301B0880F991F6A95E2F78095822387BB08957B
S11301C0413059F424B381E090E002C0880F991FB4
S11301D06A95E2F7822B84BB089524B381E090E012
S11301E002C0880F991F6A95E2F78095822384BB29
S11301F00895413059F421B381E090E002C0880FA2
S1130200991F6A95E2F7822B81BB089521B381E09F
S113021090E002C0880F991F6A95E2F780958223C7
S113022081BB0895823019F118F4813039F00895B2
S11302308330B1F1843009F44CC00895413059F44D
S11302402BB381E090E002C0880F991F6A95E2F712
S1130250822B8BBB08952BB381E090E002C0880F02
S1130260991F6A95E2F7809582238BBB08954130EC
S113027059F428B381E090E002C0880F991F6A9571
S1130280E2F7822B88BB089528B381E090E002C096
S1130290880F991F6A95E2F78095822388BB089599
S11302A0413059F425B381E090E002C0880F991FD2
S11302B06A95E2F7822B85BB089525B381E090E02F
S11302C002C0880F991F6A95E2F78095822385BB47
S11302D00895413059F422B381E090E002C0880FC0
S11302E0991F6A95E2F7822B82BB089522B381E0BD
S11302F090E002C0880F991F6A95E2F780958223E7
S113030082BB0895823099F018F4813031F02CC00A
S11303108330B9F08430F9F027C089B390E002C08B
S1130320959587956A95E2F7982F91701DC086B3CD
S113033090E002C0959587956A95E2F7982F9170A1
S113034013C083B390E002C0959587956A95E2F750
S1130350982F917009C080B390E002C0959587955D
S11303606A95E2F7982F9170892F08958230A1F051
S113037018F4813031F008958330C9F0843011F1DC
S11303800895613019F48FEF8ABB0895611102C09A
S11303901ABA08956ABB0895613019F48FEF87BBC8
S11303A00895611102C017BA089567BB08956130BA
S11303B019F48FEF84BB0895611102C014BA089533
S11303C064BB0895613019F48FEF81BB0895611106
S11303D002C011BA089561BB08958230A1F018F4E7
S11303E0813031F008958330C9F0843011F10895DB
S11303F0613019F48FEF8BBB0895611102C01BBAF1
S113040008956BBB0895613019F48FEF88BB08958C
S1130410611102C018BA089568BB0895613019F4D7
S11304208FEF85BB0895611102C015BA089565BBAD
S11304300895613019F48FEF82BB0895611102C0F1
S113044012BA089562BB08958230C9F018F481305D
S113045031F00895833019F1843089F108956130C1
S113046039F46AB3407F6F70642B0E94B60108951B
S11304706AB34F70607F642B0E94B60108956130A7
S113048039F467B3407F6F70642B0E94B6010895FE
S113049067B34F70607F642B0E94B601089561308A
S11304A039F464B3407F6F70642B0E94B6010895E1
S11304B064B34F70607F642B0E94B601089561306D
S11304C039F461B3407F6F70642B0E94B6010895C4
S11304D061B34F70607F642B0E94B601089582302F
S11304E0C9F018F4813031F00895833019F1843063
S11304F089F10895613039F46BB3407F6F70642BD8
S11305000E94ED0108956BB34F70607F642B0E94CD
S1130510ED010895613039F468B3407F6F70642B46
S11305200E94ED01089568B34F70607F642B0E94B0
S1130530ED010895613039F465B3407F6F70642B29
S11305400E94ED01089565B34F70607F642B0E9493
S1130550ED010895613039F462B3407F6F70642B0C
S11305600E94ED01089562B34F70607F642B0E9476
S1130570ED01089593708EBB1FBA6DBB8CB384607C
S11305808CBB8CB382608CBBE199FECF08959370D1
S11305908EBB1FBA8CB381608CBB8DB3089541E0D0
S11305A063E081E00E9412018FE19EE40197F1F77C
S11305B000C0000040E063E081E00E941201089561
S11305C0CF93C82F40E061E081E00E9412014C2FDC
S11305D061E081E00E946F020E94CF024C2F42959D
S11305E0407F61E081E00E946F0263E070E081E09F
S11305F090E00E94CF02CF9108952FEF81EE94E016
S1130600215080409040E1F700C0000041E061E0EB
S113061081E00E94240241E061E081E00E94A200A6
S113062041E062E081E00E94A20041E063E081E0F9
S11306300E94A20082E00E94E0022FE788E391E09A
S1130640215080409040E1F700C0000088E20E9401
S1130650E0028FE99FE00197F1F700C000008CE011
S11306600E94E0028FE99FE00197F1F700C00000CB
S113067081E00E94E0028FE99FE00197F1F700C05A
S1130680000080E10E94E0028FE99FE00197F1F70A
S113069000C000000895CF93C82F41E061E081E0DD
S11306A00E9412014C2F61E081E00E946F020E94BF
S11306B0CF024C2F4295407F61E081E00E946F029F
S11306C063E070E081E090E00E94CF02CF91089552
S11306D0CF93DF93EC0103C00E944B0321968881E2
S11306E08111FACFDF91CF9108950F931F93CF9388
S11306F0DF93CDB7DEB764970FB6F894DEBF0FBEB5
S1130700CDBF9F938F937F936F9385E690E09F93E4
S11307108F938E010F5F1F4F1F930F930E94B91089
S1130720C8010E9468030FB6F894DEBF0FBECDBFA8
S113073064960FB6F894DEBF0FBECDBFDF91CF91A4
S11307401F910F9108959FEF980F923020F4662324
S113075011F0613120F080E80E94E0020DC0813088
S113076029F48FE7860F0E94E00206C0823021F44C
S11307708FEB860F0E94E0028FEC97E00197F1F770
S113078000C00000089541E00E94A200089541E0E5
S11307900E941201089540E00E9412010895CF932F
S11307A0DF93C82FD62F0E948201813029F46D2F48
S11307B08C2F0E94CB0304C06D2F8C2F0E94C70383
S11307C0DF91CF9108950E946E0008950E949300D6
S11307D0BC0180E090E00E946E0F20E030E040E237
S11307E055E40E94FC0F20E030E040E256E40E9411
S11307F0CD0E0E943F0F862F08958AE690E00E9456
S113080068036091090870910A0880E090E00E94F2
S113081075038FED0E944B0383E40E944B0361E058
S113082082E00E94A30381E790E00E946803609144
S11308300C0870E080E090E00E94750367E081E0BE
S11308400E94A3036091090870910A0880E090E077
S11308500E9475038FED0E944B0383E40E944B03B7
S11308608091090890910A080A9738F46AE081E0B7
S11308700E94A30380E20E944B0365E082E00E9491
S1130880A30360910C0870E080E090E00E9475037F
S11308908091090890910A088436910520F486E72E
S11308A090E00E9468038EE190E00E94190DC6CF8B
S11308B00E94E60390E090930A08809309088C3123
S11308C09105A8F04C97969587950196880F982FD7
S11308D0990F990F890F80930C08843618F084E6D9
S11308E080930C0880910C080E944A0704C010925F
S11308F00C080E945B0782E390E00E94190DD8CF98
S1130900AF92BF92CF92DF92EF92FF920F931F9319
S1130910CF93DF93CDB7DEB728970FB6F894DEBF39
S11309200FBECDBF89E790E00E94C00E10E00CC05E
S1130930E12EF12C0E94BC0EE1E0F0E0EC0FFD1F73
S1130940EE0DFF1D80831F5F143090F388E890E064
S11309500E94C00E10E00CC0E12EF12C0E94BC0ECF
S1130960E5E0F0E0EC0FFD1FEE0DFF1D80831F5F3F
S1130970163090F300E0DD24D39439C0E02EF12C3E
S113098057018AE0A80EB11CC5010E94C7029981D3
S113099089132CC011C0812F90E0E1E0F0E0EC0F4E
S11309A0FD1FE80FF91FC0808A0D9B1D0E94C7021E
S11309B0C812D12C1F5F01C010E0143060F310E0A6
S11309C013C0812F90E0E5E0F0E0EC0FFD1FE80F8D
S11309D0F91FB0809701225F3F4F820F931F0E943F
S11309E0C702B812D12C1F5F163058F3065F8091EE
S11309F0CC01081718F28D2D28960FB6F894DEBF97
S1130A000FBECDBFDF91CF911F910F91FF90EF905B
S1130A10DF90CF90BF90AF9008950E94FD0260E0F8
S1130A2080E00E94A30380E00E94E30360E875E293
S1130A3080E090E00E94780E0E9422070E94360710
S1130A4060E082E00E94C30361E082E00E94C3038D
S1130A5062E082E00E94C30362E084E00E94C30378
S1130A6063E084E00E94C30364E084E00E94C30363
S1130A700895CF938DE990E00E94C00EC0E00CC0B1
S1130A800E94BC0E682F809308088C2F90E08E5033
S1130A909C4F0E94BA02CF5FC43090F382EB90E087
S1130AA00E94C00EC0E00CC00E94BC0E682F809350
S1130AB00B088C2F90E08A509C4F0E94BA02CF5FA3
S1130AC0C63090F369E580E090E00E94BA02CF91CD
S1130AD00895AF92BF92CF92DF92EF92FF920F935D
S1130AE00E940D05A12CB12CC12CD12CE12CF12C90
S1130AF001E020E030E048EC50E060E070E082EE9D
S1130B0096E00E94030B02E020E030E048EC50E065
S1130B1060E070E088E594E00E94030B03E020E0CD
S1130B2030E048EC50E060E070E08DEF93E00E942C
S1130B30030B40E061E085E00E94E409909307081C
S1130B40809306088DEC90E00E9468032FEF84E305
S1130B509CE0215080409040E1F700C0000081E01B
S1130B600E94E00280E090E00E94C7028935D9F03B
S1130B7060E081E090E00E94BA028DED90E00E9476
S1130B8068030E94390581E00E94E0028EEE90E045
S1130B900E9468032FEF84E39CE021508040904042
S1130BA0E1F700C0000081E090E00E94C70280935A
S1130BB0CC0181E00E94E0028FEF90E00E94680384
S1130BC00E9480048823E1F30E94BB0B80E090E044
S1130BD00F91FF90EF90DF90CF90BF90AF9008956A
S1130BE0CF938CE091E00E94C00EC0E00AC00E9446
S1130BF0BC0E2C2F30E0682FC9010B960E94BA025C
S1130C00CF5FC430A0F380E291E00E94C00EC0E048
S1130C100AC00E94BC0E2C2F30E0682FC9010F9629
S1130C200E94BA02CF5FC630A0F36091CC016F5F1F
S1130C3081E090E00E94BA028AE391E00E94C00E33
S1130C40CF910895DF92EF92FF920F931F93CF936A
S1130C50DF93CDB7DEB728970FB6F894DEBF0FBE8B
S1130C60CDBF8CE091E00E94C00E10E00CC0E12EDC
S1130C70F12C0E94BC0EE5E0F0E0EC0FFD1FEE0D40
S1130C80FF1D80831F5F143090F3E12CDD24D39487
S1130C9044C08E2D90E00A960F2D10E0800F911F16
S1130CA00E94C702E1E0F0E0EC0FFD1FE00FF11F2E
S1130CB08083F39401C0F12C83E08F1550F720E07A
S1130CC013C0822F90E0E1E0F0E0EC0FFD1FE80F8D
S1130CD0F91F3081E5E0F0E0EC0FFD1FE80FF91F8C
S1130CE080813813D12C2F5F243058F381E0D8123F
S1130CF013C00AC08E2D90E00A9661E4810F911D05
S1130D000E94BA021F5F01C010E01A3098F389E410
S1130D1091E00E94C00E05C0E3948091CC01E816D6
S1130D2050F26091CC01615081E090E00E94BA02DF
S1130D308AE391E00E94C00E28960FB6F894DEBFB5
S1130D400FBECDBFDF91CF911F910F91FF90EF9018
S1130D50DF900895CF93DF9383E691E00E94C00E65
S1130D60C0E0D0E00CC00E94BC0EE0916000F091A5
S1130D706100EC0FF11D90818913D1E0CF5FC43085
S1130D8090F3D130C1F08AE791E00E94C00EC0E038
S1130D900BC00E94BC0E2C2F30E0682FC9018A5072
S1130DA09C4F0E94BA02CF5FC63098F383E991E06A
S1130DB00E94C00E04C084EA91E00E94C00EDF913C
S1130DC0CF9108950E94BC0EE82F80916200E8172D
S1130DD0C9F38E2F90E0FC01F197E532F10590F70D
S1130DE0E65DFF4F0C949F100E94F005EBCF0E942C
S1130DF02206E8CF0E94AA06E5CF60E082E00E94C6
S1130E00CF03E0CF61E082E00E94CF03DBCF62E05A
S1130E1082E00E94CF03D6CF62E084E00E94CF0339
S1130E20D1CF63E084E00E94CF03CCCF64E084E0C0
S1130E300E94CF03C7CF82E30E946607C3CF0E94FC
S1130E407707C0CF41E067E082E00E94A20041E062
S1130E5066E082E00E94A20041E063E082E00E943A
S1130E60A2000E943E0E0E946C0E089541E067E0CD
S1130E7084E00E94A20041E065E082E00E94A200BA
S1130E8041E064E082E00E94A2000E94160E0E94EB
S1130E90370E0895CF93C82F41E067E082E00E94A7
S1130EA0120140E066E082E00E9412018C2F0E9451
S1130EB0230ECF91089541E067E082E00E94120181
S1130EC041E066E082E00E9412010895CF93C82FAA
S1130ED041E065E082E00E94120140E064E082E0CB
S1130EE00E9412018C2F0E94550ECF91089541E06B
S1130EF065E082E00E94120141E064E082E00E9429
S1130F0012010895CF93DF93EC010E94E60B8091C8
S1130F10CD019091CE01892B31F482ED91E0909333
S1130F20CE018093CD012091CF013091D001C90130
S1130F308C0F9D1F8B3D45E0940770F428173907EB
S1130F4070F4C091CD01D091CE01C20FD31F909304
S1130F50D0018093CF0105C0C0E0D0E002C0C0E062
S1130F60D0E00E94A80CCE01DF91CF91089508959E
S1130F70FC010396928381832FEF3FEF3483238315
S1130F80968385839087878310820895FC01118658
S1130F9010860895CF93DF939C01FB01DC01119629
S1130FA0CD91DC911297D383C2838C819D819583EB
S1130FB084838C819D81DC0113967C936E931297BC
S1130FC07D836C8331872087F90180818F5F8083E3
S1130FD0DF91CF910895CF93DF93EB01488159813D
S1130FE04F3F2FEF520721F4FC01A781B0850DC0BC
S1130FF0DC01139601C0DF011296ED91FC91139769
S11310002081318142175307B0F71296ED91FC917C
S11310101397FB83EA83D583C483BD83AC83139680
S1131020DC93CE93129799878887FC0120812F5FE8
S11310302083DF91CF910895CF93DF93FC01A085A6
S1131040B185C281D381848195819D838C83C48140
S1131050D581828193819B838A8311968D919C9102
S11310601297E817F90731F48481958112969C93BD
S11310708E931197118610868C9181508C93DF91F9
S1131080CF9108951BBC8CE78ABD8BE08EBD89B7D8
S1131090806189BF089531E1FC013083319722E2F8
S11310A020833197A3E3A0833197608331977083C2
S11310B031971082319760E86083319710823197BD
S11310C062E06083319763E06083319764E060831A
S11310D0319765E06083319766E06083319767E01C
S11310E06083319768E06083319769E0608331976A
S11310F060E1608331973083319732E130833197F7
S113110033E13083319734E13083319735E13083F3
S1131110319736E13083319737E13083319738E1C5
S11311203083319739E13083319730E2308331971E
S113113031E2308331972083319723E22083319742
S1131140408331975083319726E22083319727E2F9
S11311502083319728E22083319729E22083319735
S113116020E32083319721E32083869708950E940A
S11311704208A0910408B0910508CD91CDBFDD913E
S1131180DEBFFF91EF91DF91CF91BF91AF919F911E
S11311908F917F916F915F914F913F912F911F910B
S11311A00F91FF90EF90DF90CF90BF90AF909F9002
S11311B08F907F906F905F904F903F902F901F90F3
S11311C00F900FBE0F90089581E008950F920FB60F
S11311D0F8940F921F9211242F923F924F925F9294
S11311E06F927F928F929F92AF92BF92CF92DF9233
S11311F0EF92FF920F931F932F933F934F935F931D
S11312006F937F938F939F93AF93BF93CF93DF930A
S1131210EF93FF93A0910408B09105080DB60D92C9
S11312200EB60D920E94720DA0910408B0910508AB
S1131230CD91CDBFDD91DEBFFF91EF91DF91CF91D5
S1131240BF91AF919F918F917F916F915F914F91DA
S11312503F912F911F910F91FF90EF90DF90CF90CE
S1131260BF90AF909F908F907F906F905F904F90C2
S11312703F902F901F900F900FBE0F9008950F92E4
S11312800FB6F8940F921F9211242F923F924F920F
S11312905F926F927F928F929F92AF92BF92CF9202
S11312A0DF92EF92FF920F931F932F933F934F93ED
S11312B05F936F937F938F939F93AF93BF93CF93DA
S11312C0DF93EF93FF93A0910408B09105080DB646
S11312D00D920EB60D920E94EC0B81110E94720DBC
S11312E0A0910408B0910508CD91CDBFDD91DEBF7A
S11312F0FF91EF91DF91CF91BF91AF919F918F912A
S11313007F916F915F914F913F912F911F910F9119
S1131310FF90EF90DF90CF90BF90AF909F908F9011
S11313207F906F905F904F903F902F901F900F9001
S11313300FBE0F9008950E943F091895CF93DF9335
S1131340EC010FB6F8940F92E881F9818B8D90E04F
S11313502C8D30E0829FA001839F500D929F500DF1
S113136011244E0F5F1F5B834A831A8EFD83EC8327
S11313700197289FA001299F500D389F500D1124DB
S1131380CF01840F951F9F838E838FEF8D8F8E8F58
S113139061110CC08885882389F0CE0108960E94CB
S11313A0CE0D813059F40E94E60808C0CE0108969B
S11313B00E94B807CE0141960E94B8070F900FBE55
S11313C081E0DF91CF9108950F931F93CF93DF9323
S11313D0882301F1062F182F8FE190E00E948207E5
S11313E0EC01892BC9F0109FC001112401960E94C1
S11313F0820799838883892B39F01B8F0C8F61E0D6
S1131400CE010E949E0908C0CE010E94B707C0E029
S1131410D0E002C0C0E0D0E0CE01DF91CF911F91B7
S11314200F910895E091CC07F091CD07808181114F
S113143007C08FEF9FEF909364008093630008953B
S1131440E091CC07F091CD070580F681E02D068070
S1131450F781E02D828193819093640080936300EF
S11314600895EF92FF920F931F93CF93DF937C0124
S1131470EB018DE290E00E9482078C01892B89F0B8
S1131480209721F4C7010E94820701C0CE01F80110
S1131490908F878B892B29F4C8010E94B70700E03D
S11314A010E0C801DF91CF911F910F91FF90EF9051
S11314B00895CF93DF93EC018F89988D0E94B7072D
S11314C0CE010E94B707DF91CF9108951F93CF9368
S11314D0DF93EC01142F20E00FC0822F90E0FB017A
S11314E0E80FF91F3081DE01A80FB91F59963C930C
S11314F08081882319F02F5F243178F31CA61430DF
S113150008F013E01E8BCE0102960E94C607CE019E
S11315100C960E94C607D987C88784E090E0811B97
S113152091099D878C87DB8BCA8BDF91CF911F91AB
S11315300895CF93C0E010C08C2F90E09C01220F3F
S1131540331F220F331F220F331F820F931F80522A
S1131550984F0E94B807CF5FC43070F387ED97E0CF
S11315600E94B8078EEC97E00E94B80781EC97E0E0
S11315700E94B80788EB97E00E94B80787ED97E0D0
S11315809093CD078093CC078EEC97E09093CB0794
S11315908093CA07CF910895CF93DF93EC01E09134
S11315A00408F0910508938382838091B407909195
S11315B0B507C817D90768F4609104087091050845
S11315C08091CA079091CB076E5F7F4F0E94EB0713
S11315D017C060910408709105088091CC07909120
S11315E0CD076E5F7F4F0E94EB078091630090915F
S11315F06400C817D90720F4D0936400C093630033
S1131600DF91CF9108952F923F924F925F927F92F4
S11316108F929F92AF92BF92CF92DF92EF92FF92FE
S11316200F931F93CF93DF9300D000D0CDB7DEB7D5
S11316309A8389834B015C834B831901702EB60115
S11316402501CA010E94310A5C01009709F46AC0AD
S1131650FC01C788D08C8B819C810197C80ED91E50
S11316600B811C819201472DB401C5010E94660AB9
S1131670A10169817A81C6010E944B08F501918319
S11316808083E114F10419F0F701B182A0820FB64E
S1131690F8940F928091B6078F5F8093B60780917C
S11316A0040890910508892B59F4B0920508A0927A
S11316B004088091B607813091F40E94990A0FC002
S11316C08091B20781110BC0E0910408F0910508E4
S11316D08689781620F0B0920508A09204088091BB
S11316E0AE078F5F8093AE07F50186899091B307AB
S11316F0981710F48093B30790E0B5016E5F7F4FA5
S11317009C01220F331F220F331F220F331F820F1E
S1131710931F8052984F0E94CA070F900FBEF1E0AA
S1131720F98302C08FEF8983E981E13069F4809104
S1131730B207882349F0E0910408F09105088689EE
S1131740871510F40E94E60889810F900F900F907E
S11317500F90DF91CF911F910F91FF90EF90DF9049
S1131760CF90BF90AF909F908F907F905F904F905D
S11317703F902F900895AF92BF92CF92DF92EF9255
S1131780FF920F93A12CB12CC12CD12CE12CF12C64
S113179000E020E030E045E550E067EC71E089E6E8
S11317A09DE00E94030B813049F4F8948093B207C2
S11317B01092B5071092B4070E94B7080F91FF90DA
S11317C0EF90DF90CF90BF90AF9008958091AD07D8
S11317D08F5F8093AD070895DF92EF92FF920F938E
S11317E01F93CF93DF938091AD07811199C08091AE
S11317F0B4079091B50701969093B5078093B40709
S1131800E090B407F090B507E114F104B9F48091C5
S1131810CC079091CD072091CA073091CB07309324
S1131820CD072093CC079093CB078093CA07809170
S1131830AF078F5F8093AF070E94120A8091630005
S113184090916400E816F90628F4D12C53C0DD24E5
S1131850D39401C0D12CE091CC07F091CD078081C5
S1131860811107C08FEF9FEF909364008093630012
S113187041C0E091CC07F091CD070580F681E02DC1
S1131880C681D7818A819B81E816F90628F4909352
S11318906400809363002EC08E010E5F1F4FC80149
S11318A00E941C088C899D89892B21F0CE010C96FD
S11318B00E941C088E899091B307981710F48093A6
S11318C0B30790E09C01220F331F220F331F220F16
S11318D0331F820F931FB8018052984F0E94CA078A
S11318E09E89E0910408F09105088689981708F00C
S11318F0AECFB1CFE0910408F0910508868990E05D
S1131900FC01EE0FFF1FEE0FFF1FEE0FFF1F8E0FE8
S11319109F1FFC01E052F84F8081823040F409C0DF
S11319208091B1078F5F8093B107D12C02C0DD2471
S1131930D3948091B007882311F0DD24D3948D2DA6
S1131940DF91CF911F910F91FF90EF90DF90089559
S11319500F931F93CF93DF930FB6F8940F92809158
S1131960AD0781508093AD078091AD07811157C0B9
S11319708091B607811132C055C0E091C607F0913D
S1131980C707C681D781CE010C960E941C088E0120
S11319900E5F1F4FC8010E941C088E899091B307E7
S11319A0981710F48093B30790E09C01220F331F23
S11319B0220F331F220F331F820F931FB80180524F
S11319C0984F0E94CA079E89E0910408F091050887
S11319D08689981718F081E08093B0078091C10739
S11319E08111CBCF8091B10781110DC010C00E942D
S11319F0EC0B882319F081E08093B0078091B10744
S1131A0081508093B1078091B1078111F0CF80910B
S1131A10B007813031F40E94E60881E003C080E021
S1131A2001C080E00F900FBEDF91CF911F910F9105
S1131A300895CF93DF93EC01892BA9F00E94E60B64
S1131A408091B4079091B507C80FD91F80910408FD
S1131A509091050802960E941C08CE010E94CC0AAF
S1131A600E94A80C01C080E0811102C00E94E60817
S1131A70DF91CF910895CF93DF9324C00E94E60BAA
S1131A80C091B8070E94A80CCC23E1F00FB6F894DB
S1131A900F92E091BD07F091BE07C681D781CE01B8
S1131AA002960E941C088091B60781508093B60765
S1131AB08091B70781508093B7070F900FBECE0176
S1131AC00E94590A8091B7078111D8CFDF91CF9135
S1131AD008950E943B0D8091E0078230D0F30E946C
S1131AE0E608F7CF8091AD07882321F081E0809349
S1131AF0B00708951092B00705C08091B3078150D4
S1131B008093B3078091B30790E0FC01EE0FFF1FB1
S1131B10EE0FFF1FEE0FFF1F8E0F9F1FFC01E05201
S1131B20F84F8081882349F38091B30790E09C01AA
S1131B30220F331F220F331F220F331F280F391F89
S1131B40D901A052B84F1196ED91FC9112970280E1
S1131B50F381E02D1296FC93EE9311972D51384F9B
S1131B60E217F30729F422813381FD0132832183B3
S1131B70FC01EE0FFF1FEE0FFF1FEE0FFF1F8E0F76
S1131B809F1FFC01E052F84F0180F281E02D868115
S1131B909781909305088093040808950F931F93E9
S1131BA0CF93DF93DC011596ED91FC911697C681D6
S1131BB0D7818E01045F1F4FC8010E941C088091C9
S1131BC0AD0781111CC00A501109C8010E941C08EC
S1131BD08E899091B307981710F48093B30790E01F
S1131BE09C01220F331F220F331F220F331F820F3A
S1131BF0931FB8018052984F0E94CA0705C0B801CC
S1131C0081EC97E00E94CA079E89E0910408F09154
S1131C1005088689891720F481E08093B00701C004
S1131C2080E0DF91CF911F910F91089583B7877B57
S1131C3083BF83B7806483BF83B78F7C83BF83B73D
S1131C40806283BF0895CF93DF931F92CDB7DEB731
S1131C502FEF829FC001112464E670E00E94691096
S1131C60698389818CBF0F90DF91CF91089583B7E9
S1131C70887F83BF83B7856083BF089585B596B594
S1131C80877B992796BD85BD85B596B5806496BD3D
S1131C9085BD85B596B58F7C992796BD85BD85B5DF
S1131CA096B5806196BD85BD0895CF93DF931F924D
S1131CB0CDB7DEB719822FEF829FC001112464E6ED
S1131CC070E00E9469106983898190E094BD83BDAE
S1131CD00F90DF91CF91089585B596B5887F9927A8
S1131CE096BD85BD85B596B5856096BD85BD0895BF
S1131CF020B52F7720BD20B52F7B20BDDC01CB0183
S1131D00880F991FAA1FBB1F880F991FAA1FBB1FEB
S1131D109C01AD01220F331F441F551F220F331F97
S1131D20441F551F60E072E18AE790E00E947D1035
S1131D302150310980B5826080BD80B5846080BD4A
S1131D408AB18B7F8AB980B58F7E80BD80B58F7D47
S1131D5080BD80B5886080BD8AB188608AB98AB147
S1131D6080618AB980B5806880BD30BD29B9089585
S1131D705D9BFECF8CB908955F9BFECF8CB1089517
S1131D80CF93DF93EC0103C00E94B80E21968881A3
S1131D908111FACFDF91CF9108950E94E10E0C9446
S1131DA0C20F0E94BB0F58F00E94B40F40F029F4F8
S1131DB05F3F29F00C94AB0F51110C94F60F0C9467
S1131DC0B10F0E94D30F68F39923B1F3552391F314
S1131DD0951B550BBB27AA2762177307840738F096
S1131DE09F5F5F4F220F331F441FAA1FA9F335D0F3
S1131DF00E2E3AF0E0E832D091505040E695001CA7
S1131E00CAF72BD0FE2F29D0660F771F881FBB1F60
S1131E10261737074807AB07B0E809F0BB0B802D3E
S1131E20BF01FF2793585F4F3AF09E3F510578F06A
S1131E300C94AB0F0C94F60F5F3FE4F3983ED4F38D
S1131E40869577956795B795F7959F5FC9F7880F3E
S1131E50911D9695879597F90895E1E0660F771F90
S1131E60881FBB1F621773078407BA0720F0621B21
S1131E70730B840BBA0BEE1F88F7E09508950E944C
S1131E80DB0F88F09F5798F0B92F9927B751B0F01E
S1131E90E1F0660F771F881F991F1AF0BA95C9F7EA
S1131EA014C0B13091F00E94F50FB1E008950C9484
S1131EB0F50F672F782F8827B85F39F0B93FCCF337
S1131EC0869577956795B395D9F73EF49095809567
S1131ED0709561957F4F8F4F9F4F0895E89409C087
S1131EE097FB3EF490958095709561957F4F8F4F49
S1131EF09F4F9923A9F0F92F96E9BB279395F6955F
S1131F00879577956795B795F111F8CFFAF4BB0FDC
S1131F1011F460FF1BC06F5F7F4F8F4F9F4F16C040
S1131F20882311F096E911C0772321F09EE8872FCA
S1131F30762F05C0662371F096E8862F70E060E086
S1131F402AF09A95660F771F881FDAF7880F9695FF
S1131F50879597F9089597F99F6780E870E060E0A6
S1131F6008959FEF80EC089500240A94161617062E
S1131F7018060906089500240A9412161306140676
S1131F8005060895092E0394000C11F4882352F0D9
S1131F90BB0F40F4BF2B11F460FF04C06F5F7F4F91
S1131FA08F4F9F4F089557FD9058440F551F59F078
S1131FB05F3F71F04795880F97FB991F61F09F3F32
S1131FC079F087950895121613061406551FF2CF5B
S1131FD04695F1DF08C0161617061806991FF1CFAB
S1131FE086957105610508940895E894BB276627D2
S1131FF07727CB0197F908950E940F100C94C20F14
S11320000E94B40F38F00E94BB0F20F0952311F00A
S11320100C94AB0F0C94B10F11240C94F60F0E9486
S1132020D30F70F3959FC1F3950F50E0551F629F36
S1132030F001729FBB27F00DB11D639FAA27F00D1D
S1132040B11DAA1F649F6627B00DA11D661F829F44
S11320502227B00DA11D621F739FB00DA11D621F29
S1132060839FA00D611D221F749F3327A00D611D46
S1132070231F849F600D211D822F762F6A2F112428
S11320809F5750409AF0F1F088234AF0EE0FFF1F5B
S1132090BB1F661F771F881F91505040A9F79E3FB2
S11320A0510580F00C94AB0F0C94F60F5F3FE4F3F2
S11320B0983ED4F3869577956795B795F795E79508
S11320C09F5FC1F7FE2B880F911D9695879597F911
S11320D0089597FB072E16F4009407D077FD09D0D6
S11320E00E94A51007FC05D03EF4909581959F4F62
S11320F00895709561957F4F0895A1E21A2EAA1B49
S1132100BB1BFD010DC0AA1FBB1FEE1FFF1FA217A3
S1132110B307E407F50720F0A21BB30BE40BF50BA0
S1132120661F771F881F991F1A9469F76095709529
S1132130809590959B01AC01BD01CF010895EE0FF0
S1132140FF1F0590F491E02D0994AA1BBB1B51E1DC
S113215007C0AA1FBB1FA617B70710F0A61BB70B13
S1132160881F991F5A95A9F780959095BC01CD01B8
S11321700895AEE0B0E0EFEBF0E10C947A130D8932
S11321801E8986E08C831A8309838FEF9FE79E83E1
S11321908D83AE01475E5F4F6F89788DCE010196C6
S11321A00E94DB10EF81F885E00FF11F10822E965C
S11321B0E4E00C949613ABE0B0E0E1EEF0E10C94B3
S11321C06C136C017B018A01FC01178216828381E6
S11321D081FFCCC1CE0101963C01F6019381F70148
S11321E093FD859193FF81917F01882309F4BAC1FE
S11321F0853239F493FD859193FF81917F01853276
S113220029F4B60190E00E94D212E7CF912C212C40
S1132210312CFFE1F315D8F08B3279F038F48032A9
S113222079F08332A1F4232D20611DC08D3261F039
S1132230803369F4232D216016C0832D8260382EEB
S1132240E32DE4603E2E2AC0F32DF8601DC037FC58
S11322502DC020ED280F2A3040F08E32B9F436FC20
S113226081C1232D2064322E19C036FE06C08AE0B7
S1132270989E200D1124922E11C0EAE02E9E200D6E
S11322801124222EF32DF0623F2E08C08C3621F447
S1132290832D8068382E02C0883641F4F70193FDFF
S11322A0859193FF81917F018111B3CF982F9F7DF9
S11322B09554933028F40C5F1F4F9FE399830DC00E
S11322C0833631F0833771F0833509F059C021C06A
S11322D0F801808189830E5F1F4F88248394912C99
S11322E0530113C02801F2E04F0E511CF801A080E5
S11322F0B18036FE03C0692D70E002C06FEF7FEF3E
S1132300C5010E94C7124C018201F32DFF773F2EB5
S113231016C0280122E0420E511CF801A080B180B1
S113232036FE03C0692D70E002C06FEF7FEFC50178
S11323300E94BC124C01F32DF0683F2E820133FC45
S11323401BC0822D90E088169906B0F4B60180E295
S113235090E00E94D2122A94F4CFF50137FC8591C3
S113236037FE81915F01B60190E00E94D2122110E4
S11323702A9421E0821A91088114910471F7E8C02B
S1132380843611F0893641F5F80137FE07C06081C3
S11323907181828193810C5F1F4F08C060817181BC
S11323A0072E000C880B990B0E5F1F4FF32DFF7641
S11323B03F2E97FF09C090958095709561957F4F4A
S11323C08F4F9F4FF0683F2E2AE030E0A3010E9418
S11323D00E13882E861845C0853731F4232D2F7EA1
S11323E0B22E2AE030E025C0932D997FB92E8F3686
S11323F0C1F018F4883579F0B5C0803719F0883702
S113240021F0B0C0E92FE061BE2EB4FE0DC0FB2D5B
S1132410F460BF2E09C034FE0AC0292F2660B22EF4
S113242006C028E030E005C020E130E002C020E131
S113243032E0F801B7FE07C0608171818281938127
S11324400C5F1F4F06C06081718180E090E00E5FD9
S11324501F4FA3010E940E13882E8618FB2DFF77B1
S11324603F2E36FE0DC0232D2E7FA22E891458F444
S113247034FE0BC032FC09C0832D8E7EA82E05C00D
S1132480B82CA32C03C0B82C01C0B92CA4FE0FC0D7
S1132490FE01E80DF11D8081803321F49A2D997E8F
S11324A0A92E09C0A2FE06C0B394B39404C08A2D19
S11324B0867809F0B394A3FC11C0A0FE06C0B21440
S11324C088F4280C922C9B180EC0B21460F4B60148
S11324D080E290E00E94D212B394F7CFB21418F4C1
S11324E02B1802C0982C212CA4FE10C0B60180E346
S11324F090E00E94D212A2FE17C0A1FC03C088E79C
S113250090E002C088E590E0B6010CC08A2D867880
S113251059F0A1FE02C08BE201C080E2A7FC8DE26B
S1132520B60190E00E94D212891438F4B60180E317
S113253090E00E94D2129A94F7CF8A94F301E80DA6
S1132540F11D8081B60190E00E94D2128110F5CF76
S1132550222009F442CEB60180E290E00E94D21219
S11325602A94F6CFF6018681978102C08FEF9FEF00
S11325702B96E2E10C948813FC01059061507040A5
S11325800110D8F7809590958E0F9F1F0895FC0138
S11325906150704001900110D8F7809590958E0F8E
S11325A09F1F08950F931F93CF93DF93FB01238104
S11325B021FD03C08FEF9FEF2CC022FF16C0468180
S11325C05781248135814217530744F4A081B18196
S11325D09D012F5F3F4F318320838C932681378168
S11325E02F5F3F4F3783268314C08B01EC01FB011F
S11325F00084F185E02D0995892BE1F6D801169622
S11326008D919C911797019617969C938E9316978C
S1132610CE01DF91CF911F910F910895FA01AA275E
S1132620283051F1203181F1E8946F936E7F6E5F11
S11326307F4F8F4F9F4FAF4FB1E03ED0B4E03CD0BF
S1132640670F781F891F9A1FA11D680F791F8A1FA2
S1132650911DA11D6A0F711D811D911DA11D20D009
S113266009F468943F912AE0269F11243019305DC3
S11326703193DEF6CF010895462F4770405D4193B4
S1132680B3E00FD0C9F7F6CF462F4F70405D4A3301
S113269018F0495D31FD4052419302D0A9F7EACFC9
S11326A0B4E0A6959795879577956795BA95C9F7F8
S11326B000976105710508959B01AC010A2E0694EB
S11326C05795479537952795BA95C9F7620F731FA4
S11326D0841F951FA01D08952F923F924F925F92E1
S11326E06F927F928F929F92AF92BF92CF92DF921E
S11326F0EF92FF920F931F93CF93DF93CDB7DEB783
S1132700CA1BDB0B0FB6F894DEBF0FBECDBF099416
S11327102A88398848885F846E847D848C849B846D
S1132720AA84B984C884DF80EE80FD800C811B817B
S1132730AA81B981CE0FD11D0FB6F894DEBF0FBEAA
S10D2740CDBFED010895F894FFCF1A
S113274AC2014EFFFF2564002D0054656D703A20C6
S113275A0041433A20002020000D0A456E74657238
S113276A204964203A0D0A000D0A456E74657220E8
S113277A50617373776F7264203A0D0A000D0A452B
S113278A6E7465722041646D696E204964203A0D45
S113279A0A000D0A456E7465722041646D696E20E3
S11327AA50617373776F7264203A0D0A0057656C2F
S11327BA636F6D6520486F6D65203A29005265671D
S11327CA6973746572696E67202E2E2E2E00526507
S11327DA676973746572696E6720446F6E65004C2D
S11327EA6F6767696E67202E2E2E2E000D0A456EBE
S11327FA7465722055736572204964203A0D0A0083
S113280A0D0A456E746572205573657220506173A2
S113281A73776F7264203A0D0A000D0A5468616E68
S113282A6B20596F75203A290055736572204861E7
S113283A73204265656E2044656C65746564202165
S113284A0D0A000D0A456E7465722052657365742B
S113285A20436F6465203A0D0A000D0A456E7465BB
S113286A72204E65772050617373776F7264203AD1
S113287A0D0A000D0A5468616E6B20596F75203A6F
S113288A290D0A000D0A596F757220526573657411
S113289A20436F64652069732057726F6E67200D39
S10F28AA0A002A30302A0049444C450042
S9030000FC
